:100000000C9434000C9449000C9449000C94490061
:100010000C9449000C9449000C9449000C9449003C
:100020000C9449000C9449000C9449000C9449002C
:100030000C9449000C9449000C9449000C9449001C
:100040000C9449000C9449000C9449000C9449000C
:100050000C9449000C9449000C9449000C944900FC
:100060000C9449000C94490011241FBECFEFD8E036
:10007000DEBFCDBF11E0A0E0B1E0ECEEF3E002C0E6
:1000800005900D92AE37B107D9F70E9489010C9403
:10009000F4010C94000083E00E943E012198089531
:1000A00060E081E00E94920080E491E00E94BB0049
:1000B00061E080E00E942C0189E491E00E94BB0095
:1000C000199BFECF2FEF80E792E0215080409040B7
:1000D000E1F700C0000008958AB1807F8AB95F9A75
:1000E000289800C000C05E9A00C000C089B1829507
:1000F000807F00C000C05E9892E09A95F1F700C042
:100100005E9A00C000C099B100C000C05E9892E045
:100110009A95F1F700C087FDE6CF5F988AB18F60AE
:100120008AB90895282F22952F708F70611102C00F
:10013000289801C0289A00C000C05E9A9BB1907FA9
:10014000922B9BB992E09A95F1F700C05E9892E0ED
:100150009A95F1F700C05E9A9BB1907F982B9BB95E
:1001600082E08A95F1F700C05E9892E09A95F1F7E7
:1001700000C00C946C000F931F93CF93DF93EC019E
:1001800019C0853289F48E010F5F1F4F898180531A
:1001900061E0883008F405C085E20E94920061E0C9
:1001A00089810E94920004C061E00E9492008E0149
:1001B000E801219688818111E4CFDF91CF911F91D1
:1001C0000F9108950F931F93CF93DF9300D000D02A
:1001D0001F92CDB7DEB79B01FE01319645E0DF01EE
:1001E0001D924A95E9F7FE0136960AE010E005C037
:1001F000B8010E94CC018293CB010097C9F72F3F31
:10020000BFEF3B0751F4FE013196CF018F01081B70
:10021000190B21912223D1F312C005E010E0021B3B
:10022000130B0DC0E1E0F0E0EC0FFD1FE00FF11F3C
:10023000808161E0805D0E9492000F5F1F4F05305A
:10024000110584F30F900F900F900F900F90DF9196
:10025000CF911F910F910895843178F4623031F07D
:10026000633031F0613029F4806403C08C5E01C0DA
:100270008C5A60E080680C94920008950F931F934D
:10028000CF93DF931F92CDB7DEB7EFE5FAEE31974C
:10029000F1F700C000009AB19F609AB9569A209A6F
:1002A000579A9BB1907F9BB95E985F98289800C041
:1002B00000005E9A599AF2E0FA95F1F700C05E9854
:1002C00092E09A95F1F700C089830E946C0060E08B
:1002D00089818C600E94920060E088E20E94920016
:1002E00060E080E40E94920000E011E061E0F8012B
:1002F00081918F010E949200F1E000341F07B1F755
:1003000060E080E00F90DF91CF911F910F910C94EE
:100310002C010E944B000E94500010E0C3E0D0E08E
:10032000199B15C0111113C061E081E00E942C01DE
:1003300088E591E00E94BB002FEF89E698E121500B
:1003400080409040E1F700C0000012E021C0199900
:1003500015C0112399F061E081E00E942C0185E62F
:1003600091E00E94BB002FEF89E698E12150804088
:100370009040E1F700C0000010E00AC0199B08C0DF
:1003800061E081E00E942C018FE691E00E94BB00B9
:10039000CE010197F1F7C4CF97FB072E16F4009416
:1003A00007D077FD09D00E94E00107FC05D03EF49C
:1003B000909581959F4F0895709561957F4F089511
:1003C000AA1BBB1B51E107C0AA1FBB1FA617B7077B
:1003D00010F0A61BB70B881F991F5A95A9F7809597
:0C03E0009095BC01CD010895F894FFCF6A
:1003EC000C12120C000000000C1204081E0000007D
:1003FC000A15110A040000000305090B0B1818005C
:10040C001F0E0E0404040404010105051515150046
:10041C000E11111F1F1F1F00000000000000000024
:10042C004D6F727365415652005072657373207430
:10043C006F207374617274005072657373656420FD
:10044C00446F776E004C6966746564207570005358
:0E045C0074696C6C20507265737365640000E7
:00000001FF
