:100000000C9434000C9449000C9449000C94490061
:100010000C9449000C9449000C9449000C9449003C
:100020000C9449000C9449000C9449000C9449002C
:100030000C9449000C9449000C9449000C9449001C
:100040000C9449000C9449000C9449000C9449000C
:100050000C9449000C9449000C9449000C944900FC
:100060000C9449000C94490011241FBECFEFD8E036
:10007000DEBFCDBF11E0A0E0B1E0EEE6F3E002C0EC
:1000800005900D92A236B107D9F70E946D010C942C
:10009000B5010C94000083E00E942201219808958C
:1000A0008AB1807F8AB95F9A289800C000C05E9AA2
:1000B00000C000C089B18295807F00C000C05E98FA
:1000C00092E09A95F1F700C05E9A00C000C099B125
:1000D00000C000C05E9892E09A95F1F700C087FDDD
:1000E000E6CF5F988AB18F608AB90895282F22954C
:1000F0002F708F70611102C0289801C0289A00C02B
:1001000000C05E9A9BB1907F922B9BB992E09A952A
:10011000F1F700C05E9892E09A95F1F700C05E9A00
:100120009BB1907F982B9BB982E08A95F1F700C034
:100130005E9892E09A95F1F700C00C9450000F93EE
:100140001F93CF93DF93EC0119C0853289F48E01A0
:100150000F5F1F4F8981805361E0883008F405C02C
:1001600085E20E94760061E089810E94760004C0E9
:1001700061E00E9476008E01E8012196888181115C
:10018000E4CFDF91CF911F910F9108950F931F93AB
:10019000CF93DF9300D000D01F92CDB7DEB79B0185
:1001A000FE01319645E0DF011D924A95E9F7FE0117
:1001B00036960AE010E005C0B8010E948D018293D6
:1001C000CB010097C9F72F3FBFEF3B0751F4FE016A
:1001D0003196CF018F01081B190B21912223D1F3F6
:1001E00012C005E010E0021B130B0DC0E1E0F0E0CF
:1001F000EC0FFD1FE00FF11F808161E0805D0E9428
:1002000076000F5F1F4F0530110584F30F900F909C
:100210000F900F900F90DF91CF911F910F91089544
:10022000843178F4623031F0633031F0613029F498
:10023000806403C08C5E01C08C5A60E080680C94BE
:10024000760008950F931F93CF93DF931F92CDB73E
:10025000DEB7EFE5FAEE3197F1F700C000009AB192
:100260009F609AB9569A209A579A9BB1907F9BB9F2
:100270005E985F98289800C000005E9A599AF2E054
:10028000FA95F1F700C05E9892E09A95F1F700C0F8
:1002900089830E94500060E089818C600E94760012
:1002A00060E088E20E94760060E080E40E947600D0
:1002B00000E011E061E0F80181918F010E94760079
:1002C000F1E000341F07B1F760E080E00F90DF91AC
:1002D000CF911F910F910C9410010E944B0060E090
:1002E00081E00E94760080E491E00E949F0061E03E
:1002F00080E00E94100189E491E00E949F00199B18
:1003000007C061E081E00E9410018AE591E0F5CF2D
:1003100060E081E00E947600F2CF97FB072E16F492
:10032000009407D077FD09D00E94A10107FC05D0F9
:100330003EF4909581959F4F0895709561957F4FFC
:100340000895AA1BBB1B51E107C0AA1FBB1FA6171C
:10035000B70710F0A61BB70B881F991F5A95A9F76E
:0E03600080959095BC01CD010895F894FFCFD3
:10036E000C12120C000000000C1204081E000000FB
:10037E000A15110A040000000305090B0B181800DA
:10038E001F0E0E04040404040101050515151500C5
:10039E000E11111F1F1F1F000000000000000000A3
:1003AE004D6F7273654156520050726573732074AF
:1003BE00686520627574746F6E0050726573736534
:0203CE006400C9
:00000001FF
